{
	"contracts/Enum.sol": {
		"Enum": {
			"abi": [
				{
					"inputs": [],
					"stateMutability": "nonpayable",
					"type": "constructor"
				},
				{
					"inputs": [],
					"name": "activate",
					"outputs": [],
					"stateMutability": "nonpayable",
					"type": "function"
				},
				{
					"inputs": [],
					"name": "isActive",
					"outputs": [
						{
							"internalType": "bool",
							"name": "",
							"type": "bool"
						}
					],
					"stateMutability": "view",
					"type": "function"
				},
				{
					"inputs": [],
					"name": "state",
					"outputs": [
						{
							"internalType": "enum Enum.State",
							"name": "",
							"type": "uint8"
						}
					],
					"stateMutability": "view",
					"type": "function"
				}
			],
			"devdoc": {
				"kind": "dev",
				"methods": {},
				"version": 1
			},
			"evm": {
				"assembly": "    /* \"contracts/Enum.sol\":154:460  contract Enum {... */\n  mstore(0x40, 0x80)\n    /* \"contracts/Enum.sol\":239:291  constructor() {... */\n  callvalue\n  dup1\n  iszero\n  tag_1\n  jumpi\n  0x00\n  dup1\n  revert\ntag_1:\n  pop\n    /* \"contracts/Enum.sol\":271:284  State.Waiting */\n  0x00\n    /* \"contracts/Enum.sol\":263:268  state */\n  dup1\n  0x00\n    /* \"contracts/Enum.sol\":263:284  state = State.Waiting */\n  0x0100\n  exp\n  dup2\n  sload\n  dup2\n  0xff\n  mul\n  not\n  and\n  swap1\n  dup4\n  0x02\n  dup2\n  gt\n  iszero\n  tag_4\n  jumpi\n  tag_5\n  tag_6\n  jump\t// in\ntag_5:\ntag_4:\n  mul\n  or\n  swap1\n  sstore\n  pop\n    /* \"contracts/Enum.sol\":154:460  contract Enum {... */\n  jump(tag_7)\n    /* \"#utility.yul\":7:187   */\ntag_6:\n    /* \"#utility.yul\":55:132   */\n  0x4e487b7100000000000000000000000000000000000000000000000000000000\n    /* \"#utility.yul\":52:53   */\n  0x00\n    /* \"#utility.yul\":45:133   */\n  mstore\n    /* \"#utility.yul\":152:156   */\n  0x21\n    /* \"#utility.yul\":149:150   */\n  0x04\n    /* \"#utility.yul\":142:157   */\n  mstore\n    /* \"#utility.yul\":176:180   */\n  0x24\n    /* \"#utility.yul\":173:174   */\n  0x00\n    /* \"#utility.yul\":166:181   */\n  revert\n    /* \"contracts/Enum.sol\":154:460  contract Enum {... */\ntag_7:\n  dataSize(sub_0)\n  dup1\n  dataOffset(sub_0)\n  0x00\n  codecopy\n  0x00\n  return\nstop\n\nsub_0: assembly {\n        /* \"contracts/Enum.sol\":154:460  contract Enum {... */\n      mstore(0x40, 0x80)\n      callvalue\n      dup1\n      iszero\n      tag_1\n      jumpi\n      0x00\n      dup1\n      revert\n    tag_1:\n      pop\n      jumpi(tag_2, lt(calldatasize, 0x04))\n      shr(0xe0, calldataload(0x00))\n      dup1\n      0x0f15f4c0\n      eq\n      tag_3\n      jumpi\n      dup1\n      0x22f3e2d4\n      eq\n      tag_4\n      jumpi\n      dup1\n      0xc19d93fb\n      eq\n      tag_5\n      jumpi\n    tag_2:\n      0x00\n      dup1\n      revert\n        /* \"contracts/Enum.sol\":297:361  function activate() public {... */\n    tag_3:\n      tag_6\n      tag_7\n      jump\t// in\n    tag_6:\n      stop\n        /* \"contracts/Enum.sol\":367:458  function isActive() public view returns(bool) {... */\n    tag_4:\n      tag_8\n      tag_9\n      jump\t// in\n    tag_8:\n      mload(0x40)\n      tag_10\n      swap2\n      swap1\n      tag_11\n      jump\t// in\n    tag_10:\n      mload(0x40)\n      dup1\n      swap2\n      sub\n      swap1\n      return\n        /* \"contracts/Enum.sol\":214:232  State public state */\n    tag_5:\n      tag_12\n      tag_13\n      jump\t// in\n    tag_12:\n      mload(0x40)\n      tag_14\n      swap2\n      swap1\n      tag_15\n      jump\t// in\n    tag_14:\n      mload(0x40)\n      dup1\n      swap2\n      sub\n      swap1\n      return\n        /* \"contracts/Enum.sol\":297:361  function activate() public {... */\n    tag_7:\n        /* \"contracts/Enum.sol\":342:354  State.Active */\n      0x02\n        /* \"contracts/Enum.sol\":334:339  state */\n      0x00\n      dup1\n        /* \"contracts/Enum.sol\":334:354  state = State.Active */\n      0x0100\n      exp\n      dup2\n      sload\n      dup2\n      0xff\n      mul\n      not\n      and\n      swap1\n      dup4\n      0x02\n      dup2\n      gt\n      iszero\n      tag_17\n      jumpi\n      tag_18\n      tag_19\n      jump\t// in\n    tag_18:\n    tag_17:\n      mul\n      or\n      swap1\n      sstore\n      pop\n        /* \"contracts/Enum.sol\":297:361  function activate() public {... */\n      jump\t// out\n        /* \"contracts/Enum.sol\":367:458  function isActive() public view returns(bool) {... */\n    tag_9:\n        /* \"contracts/Enum.sol\":407:411  bool */\n      0x00\n        /* \"contracts/Enum.sol\":439:451  State.Active */\n      0x02\n        /* \"contracts/Enum.sol\":430:451  state == State.Active */\n      dup1\n      dup2\n      gt\n      iszero\n      tag_21\n      jumpi\n      tag_22\n      tag_19\n      jump\t// in\n    tag_22:\n    tag_21:\n        /* \"contracts/Enum.sol\":430:435  state */\n      0x00\n      dup1\n      sload\n      swap1\n      0x0100\n      exp\n      swap1\n      div\n      0xff\n      and\n        /* \"contracts/Enum.sol\":430:451  state == State.Active */\n      0x02\n      dup2\n      gt\n      iszero\n      tag_23\n      jumpi\n      tag_24\n      tag_19\n      jump\t// in\n    tag_24:\n    tag_23:\n      eq\n        /* \"contracts/Enum.sol\":423:451  return state == State.Active */\n      swap1\n      pop\n        /* \"contracts/Enum.sol\":367:458  function isActive() public view returns(bool) {... */\n      swap1\n      jump\t// out\n        /* \"contracts/Enum.sol\":214:232  State public state */\n    tag_13:\n      0x00\n      dup1\n      sload\n      swap1\n      0x0100\n      exp\n      swap1\n      div\n      0xff\n      and\n      dup2\n      jump\t// out\n        /* \"#utility.yul\":7:97   */\n    tag_25:\n        /* \"#utility.yul\":41:48   */\n      0x00\n        /* \"#utility.yul\":84:89   */\n      dup2\n        /* \"#utility.yul\":77:90   */\n      iszero\n        /* \"#utility.yul\":70:91   */\n      iszero\n        /* \"#utility.yul\":59:91   */\n      swap1\n      pop\n        /* \"#utility.yul\":7:97   */\n      swap2\n      swap1\n      pop\n      jump\t// out\n        /* \"#utility.yul\":103:212   */\n    tag_26:\n        /* \"#utility.yul\":184:205   */\n      tag_34\n        /* \"#utility.yul\":199:204   */\n      dup2\n        /* \"#utility.yul\":184:205   */\n      tag_25\n      jump\t// in\n    tag_34:\n        /* \"#utility.yul\":179:182   */\n      dup3\n        /* \"#utility.yul\":172:206   */\n      mstore\n        /* \"#utility.yul\":103:212   */\n      pop\n      pop\n      jump\t// out\n        /* \"#utility.yul\":218:428   */\n    tag_11:\n        /* \"#utility.yul\":305:309   */\n      0x00\n        /* \"#utility.yul\":343:345   */\n      0x20\n        /* \"#utility.yul\":332:341   */\n      dup3\n        /* \"#utility.yul\":328:346   */\n      add\n        /* \"#utility.yul\":320:346   */\n      swap1\n      pop\n        /* \"#utility.yul\":356:421   */\n      tag_36\n        /* \"#utility.yul\":418:419   */\n      0x00\n        /* \"#utility.yul\":407:416   */\n      dup4\n        /* \"#utility.yul\":403:420   */\n      add\n        /* \"#utility.yul\":394:400   */\n      dup5\n        /* \"#utility.yul\":356:421   */\n      tag_26\n      jump\t// in\n    tag_36:\n        /* \"#utility.yul\":218:428   */\n      swap3\n      swap2\n      pop\n      pop\n      jump\t// out\n        /* \"#utility.yul\":434:614   */\n    tag_19:\n        /* \"#utility.yul\":482:559   */\n      0x4e487b7100000000000000000000000000000000000000000000000000000000\n        /* \"#utility.yul\":479:480   */\n      0x00\n        /* \"#utility.yul\":472:560   */\n      mstore\n        /* \"#utility.yul\":579:583   */\n      0x21\n        /* \"#utility.yul\":576:577   */\n      0x04\n        /* \"#utility.yul\":569:584   */\n      mstore\n        /* \"#utility.yul\":603:607   */\n      0x24\n        /* \"#utility.yul\":600:601   */\n      0x00\n        /* \"#utility.yul\":593:608   */\n      revert\n        /* \"#utility.yul\":620:732   */\n    tag_27:\n        /* \"#utility.yul\":700:701   */\n      0x03\n        /* \"#utility.yul\":693:698   */\n      dup2\n        /* \"#utility.yul\":690:702   */\n      lt\n        /* \"#utility.yul\":680:726   */\n      tag_39\n      jumpi\n        /* \"#utility.yul\":706:724   */\n      tag_40\n      tag_19\n      jump\t// in\n    tag_40:\n        /* \"#utility.yul\":680:726   */\n    tag_39:\n        /* \"#utility.yul\":620:732   */\n      pop\n      jump\t// out\n        /* \"#utility.yul\":738:863   */\n    tag_28:\n        /* \"#utility.yul\":782:789   */\n      0x00\n        /* \"#utility.yul\":811:816   */\n      dup2\n        /* \"#utility.yul\":800:816   */\n      swap1\n      pop\n        /* \"#utility.yul\":817:857   */\n      tag_42\n        /* \"#utility.yul\":851:856   */\n      dup3\n        /* \"#utility.yul\":817:857   */\n      tag_27\n      jump\t// in\n    tag_42:\n        /* \"#utility.yul\":738:863   */\n      swap2\n      swap1\n      pop\n      jump\t// out\n        /* \"#utility.yul\":869:994   */\n    tag_29:\n        /* \"#utility.yul\":924:933   */\n      0x00\n        /* \"#utility.yul\":957:988   */\n      tag_44\n        /* \"#utility.yul\":982:987   */\n      dup3\n        /* \"#utility.yul\":957:988   */\n      tag_28\n      jump\t// in\n    tag_44:\n        /* \"#utility.yul\":944:988   */\n      swap1\n      pop\n        /* \"#utility.yul\":869:994   */\n      swap2\n      swap1\n      pop\n      jump\t// out\n        /* \"#utility.yul\":1000:1141   */\n    tag_30:\n        /* \"#utility.yul\":1092:1134   */\n      tag_46\n        /* \"#utility.yul\":1128:1133   */\n      dup2\n        /* \"#utility.yul\":1092:1134   */\n      tag_29\n      jump\t// in\n    tag_46:\n        /* \"#utility.yul\":1087:1090   */\n      dup3\n        /* \"#utility.yul\":1080:1135   */\n      mstore\n        /* \"#utility.yul\":1000:1141   */\n      pop\n      pop\n      jump\t// out\n        /* \"#utility.yul\":1147:1379   */\n    tag_15:\n        /* \"#utility.yul\":1245:1249   */\n      0x00\n        /* \"#utility.yul\":1283:1285   */\n      0x20\n        /* \"#utility.yul\":1272:1281   */\n      dup3\n        /* \"#utility.yul\":1268:1286   */\n      add\n        /* \"#utility.yul\":1260:1286   */\n      swap1\n      pop\n        /* \"#utility.yul\":1296:1372   */\n      tag_48\n        /* \"#utility.yul\":1369:1370   */\n      0x00\n        /* \"#utility.yul\":1358:1367   */\n      dup4\n        /* \"#utility.yul\":1354:1371   */\n      add\n        /* \"#utility.yul\":1345:1351   */\n      dup5\n        /* \"#utility.yul\":1296:1372   */\n      tag_30\n      jump\t// in\n    tag_48:\n        /* \"#utility.yul\":1147:1379   */\n      swap3\n      swap2\n      pop\n      pop\n      jump\t// out\n\n    auxdata: 0xa2646970667358221220c2f9df6d1d19e9cfa1a6fb6c139948e9d2ccf50b9355c6c9413e8169d17e9d9c64736f6c63430008080033\n}\n",
				"bytecode": {
					"linkReferences": {},
					"object": "608060405234801561001057600080fd5b5060008060006101000a81548160ff0219169083600281111561003657610035610040565b5b021790555061006f565b7f4e487b7100000000000000000000000000000000000000000000000000000000600052602160045260246000fd5b6102028061007e6000396000f3fe608060405234801561001057600080fd5b50600436106100415760003560e01c80630f15f4c01461004657806322f3e2d414610050578063c19d93fb1461006e575b600080fd5b61004e61008c565b005b6100586100b8565b604051610065919061011f565b60405180910390f35b6100766100f3565b60405161008391906101b1565b60405180910390f35b60026000806101000a81548160ff021916908360028111156100b1576100b061013a565b5b0217905550565b60006002808111156100cd576100cc61013a565b5b60008054906101000a900460ff1660028111156100ed576100ec61013a565b5b14905090565b60008054906101000a900460ff1681565b60008115159050919050565b61011981610104565b82525050565b60006020820190506101346000830184610110565b92915050565b7f4e487b7100000000000000000000000000000000000000000000000000000000600052602160045260246000fd5b6003811061017a5761017961013a565b5b50565b600081905061018b82610169565b919050565b600061019b8261017d565b9050919050565b6101ab81610190565b82525050565b60006020820190506101c660008301846101a2565b9291505056fea2646970667358221220c2f9df6d1d19e9cfa1a6fb6c139948e9d2ccf50b9355c6c9413e8169d17e9d9c64736f6c63430008080033",
					"opcodes": "PUSH1 0x80 PUSH1 0x40 MSTORE CALLVALUE DUP1 ISZERO PUSH2 0x10 JUMPI PUSH1 0x0 DUP1 REVERT JUMPDEST POP PUSH1 0x0 DUP1 PUSH1 0x0 PUSH2 0x100 EXP DUP2 SLOAD DUP2 PUSH1 0xFF MUL NOT AND SWAP1 DUP4 PUSH1 0x2 DUP2 GT ISZERO PUSH2 0x36 JUMPI PUSH2 0x35 PUSH2 0x40 JUMP JUMPDEST JUMPDEST MUL OR SWAP1 SSTORE POP PUSH2 0x6F JUMP JUMPDEST PUSH32 0x4E487B7100000000000000000000000000000000000000000000000000000000 PUSH1 0x0 MSTORE PUSH1 0x21 PUSH1 0x4 MSTORE PUSH1 0x24 PUSH1 0x0 REVERT JUMPDEST PUSH2 0x202 DUP1 PUSH2 0x7E PUSH1 0x0 CODECOPY PUSH1 0x0 RETURN INVALID PUSH1 0x80 PUSH1 0x40 MSTORE CALLVALUE DUP1 ISZERO PUSH2 0x10 JUMPI PUSH1 0x0 DUP1 REVERT JUMPDEST POP PUSH1 0x4 CALLDATASIZE LT PUSH2 0x41 JUMPI PUSH1 0x0 CALLDATALOAD PUSH1 0xE0 SHR DUP1 PUSH4 0xF15F4C0 EQ PUSH2 0x46 JUMPI DUP1 PUSH4 0x22F3E2D4 EQ PUSH2 0x50 JUMPI DUP1 PUSH4 0xC19D93FB EQ PUSH2 0x6E JUMPI JUMPDEST PUSH1 0x0 DUP1 REVERT JUMPDEST PUSH2 0x4E PUSH2 0x8C JUMP JUMPDEST STOP JUMPDEST PUSH2 0x58 PUSH2 0xB8 JUMP JUMPDEST PUSH1 0x40 MLOAD PUSH2 0x65 SWAP2 SWAP1 PUSH2 0x11F JUMP JUMPDEST PUSH1 0x40 MLOAD DUP1 SWAP2 SUB SWAP1 RETURN JUMPDEST PUSH2 0x76 PUSH2 0xF3 JUMP JUMPDEST PUSH1 0x40 MLOAD PUSH2 0x83 SWAP2 SWAP1 PUSH2 0x1B1 JUMP JUMPDEST PUSH1 0x40 MLOAD DUP1 SWAP2 SUB SWAP1 RETURN JUMPDEST PUSH1 0x2 PUSH1 0x0 DUP1 PUSH2 0x100 EXP DUP2 SLOAD DUP2 PUSH1 0xFF MUL NOT AND SWAP1 DUP4 PUSH1 0x2 DUP2 GT ISZERO PUSH2 0xB1 JUMPI PUSH2 0xB0 PUSH2 0x13A JUMP JUMPDEST JUMPDEST MUL OR SWAP1 SSTORE POP JUMP JUMPDEST PUSH1 0x0 PUSH1 0x2 DUP1 DUP2 GT ISZERO PUSH2 0xCD JUMPI PUSH2 0xCC PUSH2 0x13A JUMP JUMPDEST JUMPDEST PUSH1 0x0 DUP1 SLOAD SWAP1 PUSH2 0x100 EXP SWAP1 DIV PUSH1 0xFF AND PUSH1 0x2 DUP2 GT ISZERO PUSH2 0xED JUMPI PUSH2 0xEC PUSH2 0x13A JUMP JUMPDEST JUMPDEST EQ SWAP1 POP SWAP1 JUMP JUMPDEST PUSH1 0x0 DUP1 SLOAD SWAP1 PUSH2 0x100 EXP SWAP1 DIV PUSH1 0xFF AND DUP2 JUMP JUMPDEST PUSH1 0x0 DUP2 ISZERO ISZERO SWAP1 POP SWAP2 SWAP1 POP JUMP JUMPDEST PUSH2 0x119 DUP2 PUSH2 0x104 JUMP JUMPDEST DUP3 MSTORE POP POP JUMP JUMPDEST PUSH1 0x0 PUSH1 0x20 DUP3 ADD SWAP1 POP PUSH2 0x134 PUSH1 0x0 DUP4 ADD DUP5 PUSH2 0x110 JUMP JUMPDEST SWAP3 SWAP2 POP POP JUMP JUMPDEST PUSH32 0x4E487B7100000000000000000000000000000000000000000000000000000000 PUSH1 0x0 MSTORE PUSH1 0x21 PUSH1 0x4 MSTORE PUSH1 0x24 PUSH1 0x0 REVERT JUMPDEST PUSH1 0x3 DUP2 LT PUSH2 0x17A JUMPI PUSH2 0x179 PUSH2 0x13A JUMP JUMPDEST JUMPDEST POP JUMP JUMPDEST PUSH1 0x0 DUP2 SWAP1 POP PUSH2 0x18B DUP3 PUSH2 0x169 JUMP JUMPDEST SWAP2 SWAP1 POP JUMP JUMPDEST PUSH1 0x0 PUSH2 0x19B DUP3 PUSH2 0x17D JUMP JUMPDEST SWAP1 POP SWAP2 SWAP1 POP JUMP JUMPDEST PUSH2 0x1AB DUP2 PUSH2 0x190 JUMP JUMPDEST DUP3 MSTORE POP POP JUMP JUMPDEST PUSH1 0x0 PUSH1 0x20 DUP3 ADD SWAP1 POP PUSH2 0x1C6 PUSH1 0x0 DUP4 ADD DUP5 PUSH2 0x1A2 JUMP JUMPDEST SWAP3 SWAP2 POP POP JUMP INVALID LOG2 PUSH5 0x6970667358 0x22 SLT KECCAK256 0xC2 0xF9 0xDF PUSH14 0x1D19E9CFA1A6FB6C139948E9D2CC CREATE2 SIGNEXTEND SWAP4 SSTORE 0xC6 0xC9 COINBASE RETURNDATACOPY DUP2 PUSH10 0xD17E9D9C64736F6C6343 STOP ADDMOD ADDMOD STOP CALLER "
				},
				"gasEstimates": {
					"creation": {
						"codeDepositCost": "102800",
						"executionCost": "24452",
						"totalCost": "127252"
					},
					"external": {
						"activate()": "24409",
						"isActive()": "2534",
						"state()": "2579"
					}
				},
				"methodIdentifiers": {
					"activate()": "0f15f4c0",
					"isActive()": "22f3e2d4",
					"state()": "c19d93fb"
				}
			},
			"storageLayout": {
				"storage": [
					{
						"astId": 8,
						"contract": "contracts/Enum.sol:Enum",
						"label": "state",
						"offset": 0,
						"slot": "0",
						"type": "t_enum(State)5"
					}
				],
				"types": {
					"t_enum(State)5": {
						"encoding": "inplace",
						"label": "enum Enum.State",
						"numberOfBytes": "1"
					}
				}
			},
			"userdoc": {
				"kind": "user",
				"methods": {},
				"version": 1
			}
		}
	}
}