{
	"contracts/DataTypes.sol": {
		"DataTypes": {
			"abi": [
				{
					"inputs": [],
					"name": "myBool",
					"outputs": [
						{
							"internalType": "bool",
							"name": "",
							"type": "bool"
						}
					],
					"stateMutability": "view",
					"type": "function"
				},
				{
					"inputs": [],
					"name": "myInt",
					"outputs": [
						{
							"internalType": "int256",
							"name": "",
							"type": "int256"
						}
					],
					"stateMutability": "view",
					"type": "function"
				},
				{
					"inputs": [],
					"name": "myUint",
					"outputs": [
						{
							"internalType": "uint256",
							"name": "",
							"type": "uint256"
						}
					],
					"stateMutability": "view",
					"type": "function"
				},
				{
					"inputs": [],
					"name": "myUint256",
					"outputs": [
						{
							"internalType": "uint256",
							"name": "",
							"type": "uint256"
						}
					],
					"stateMutability": "view",
					"type": "function"
				},
				{
					"inputs": [],
					"name": "myUint8",
					"outputs": [
						{
							"internalType": "uint8",
							"name": "",
							"type": "uint8"
						}
					],
					"stateMutability": "view",
					"type": "function"
				},
				{
					"inputs": [],
					"name": "stringValue",
					"outputs": [
						{
							"internalType": "string",
							"name": "",
							"type": "string"
						}
					],
					"stateMutability": "view",
					"type": "function"
				}
			],
			"devdoc": {
				"kind": "dev",
				"methods": {},
				"version": 1
			},
			"evm": {
				"assembly": "    /* \"contracts/DataTypes.sol\":56:338  contract DataTypes {... */\n  mstore(0x40, 0x80)\n    /* \"contracts/DataTypes.sol\":155:159  true */\n  0x01\n    /* \"contracts/DataTypes.sol\":134:159  bool public myBool = true */\n  0x00\n  dup1\n  0x0100\n  exp\n  dup2\n  sload\n  dup2\n  0xff\n  mul\n  not\n  and\n  swap1\n  dup4\n  iszero\n  iszero\n  mul\n  or\n  swap1\n  sstore\n  pop\n    /* \"contracts/DataTypes.sol\":184:185  1 */\n  0x01\n    /* \"contracts/DataTypes.sol\":165:185  int public myInt = 1 */\n  dup1\n  sstore\n    /* \"contracts/DataTypes.sol\":248:249  1 */\n  0x01\n    /* \"contracts/DataTypes.sol\":226:249  uint public  myUint = 1 */\n  0x02\n  sstore\n    /* \"contracts/DataTypes.sol\":298:299  8 */\n  0x08\n    /* \"contracts/DataTypes.sol\":275:299  uint8 public myUint8 = 8 */\n  0x03\n  exp(0x0100, 0x00)\n  dup2\n  sload\n  dup2\n  0xff\n  mul\n  not\n  and\n  swap1\n  dup4\n  0xff\n  and\n  mul\n  or\n  swap1\n  sstore\n  pop\n    /* \"contracts/DataTypes.sol\":332:335  999 */\n  0x03e7\n    /* \"contracts/DataTypes.sol\":305:335  uint256 public myUint256 = 999 */\n  0x04\n  sstore\n    /* \"contracts/DataTypes.sol\":56:338  contract DataTypes {... */\n  callvalue\n  dup1\n  iszero\n  tag_1\n  jumpi\n  0x00\n  dup1\n  revert\ntag_1:\n  pop\n  dataSize(sub_0)\n  dup1\n  dataOffset(sub_0)\n  0x00\n  codecopy\n  0x00\n  return\nstop\n\nsub_0: assembly {\n        /* \"contracts/DataTypes.sol\":56:338  contract DataTypes {... */\n      mstore(0x40, 0x80)\n      callvalue\n      dup1\n      iszero\n      tag_1\n      jumpi\n      0x00\n      dup1\n      revert\n    tag_1:\n      pop\n      jumpi(tag_2, lt(calldatasize, 0x04))\n      shr(0xe0, calldataload(0x00))\n      dup1\n      0x06540f7e\n      eq\n      tag_3\n      jumpi\n      dup1\n      0x2cb777a6\n      eq\n      tag_4\n      jumpi\n      dup1\n      0x6deecdbe\n      eq\n      tag_5\n      jumpi\n      dup1\n      0x7dc93929\n      eq\n      tag_6\n      jumpi\n      dup1\n      0xa7dbce1c\n      eq\n      tag_7\n      jumpi\n      dup1\n      0xe2a4b2af\n      eq\n      tag_8\n      jumpi\n    tag_2:\n      0x00\n      dup1\n      revert\n        /* \"contracts/DataTypes.sol\":226:249  uint public  myUint = 1 */\n    tag_3:\n      tag_9\n      tag_10\n      jump\t// in\n    tag_9:\n      mload(0x40)\n      tag_11\n      swap2\n      swap1\n      tag_12\n      jump\t// in\n    tag_11:\n      mload(0x40)\n      dup1\n      swap2\n      sub\n      swap1\n      return\n        /* \"contracts/DataTypes.sol\":165:185  int public myInt = 1 */\n    tag_4:\n      tag_13\n      tag_14\n      jump\t// in\n    tag_13:\n      mload(0x40)\n      tag_15\n      swap2\n      swap1\n      tag_16\n      jump\t// in\n    tag_15:\n      mload(0x40)\n      dup1\n      swap2\n      sub\n      swap1\n      return\n        /* \"contracts/DataTypes.sol\":134:159  bool public myBool = true */\n    tag_5:\n      tag_17\n      tag_18\n      jump\t// in\n    tag_17:\n      mload(0x40)\n      tag_19\n      swap2\n      swap1\n      tag_20\n      jump\t// in\n    tag_19:\n      mload(0x40)\n      dup1\n      swap2\n      sub\n      swap1\n      return\n        /* \"contracts/DataTypes.sol\":81:128  string public constant stringValue = \"myString\" */\n    tag_6:\n      tag_21\n      tag_22\n      jump\t// in\n    tag_21:\n      mload(0x40)\n      tag_23\n      swap2\n      swap1\n      tag_24\n      jump\t// in\n    tag_23:\n      mload(0x40)\n      dup1\n      swap2\n      sub\n      swap1\n      return\n        /* \"contracts/DataTypes.sol\":305:335  uint256 public myUint256 = 999 */\n    tag_7:\n      tag_25\n      tag_26\n      jump\t// in\n    tag_25:\n      mload(0x40)\n      tag_27\n      swap2\n      swap1\n      tag_12\n      jump\t// in\n    tag_27:\n      mload(0x40)\n      dup1\n      swap2\n      sub\n      swap1\n      return\n        /* \"contracts/DataTypes.sol\":275:299  uint8 public myUint8 = 8 */\n    tag_8:\n      tag_28\n      tag_29\n      jump\t// in\n    tag_28:\n      mload(0x40)\n      tag_30\n      swap2\n      swap1\n      tag_31\n      jump\t// in\n    tag_30:\n      mload(0x40)\n      dup1\n      swap2\n      sub\n      swap1\n      return\n        /* \"contracts/DataTypes.sol\":226:249  uint public  myUint = 1 */\n    tag_10:\n      sload(0x02)\n      dup2\n      jump\t// out\n        /* \"contracts/DataTypes.sol\":165:185  int public myInt = 1 */\n    tag_14:\n      sload(0x01)\n      dup2\n      jump\t// out\n        /* \"contracts/DataTypes.sol\":134:159  bool public myBool = true */\n    tag_18:\n      0x00\n      dup1\n      sload\n      swap1\n      0x0100\n      exp\n      swap1\n      div\n      0xff\n      and\n      dup2\n      jump\t// out\n        /* \"contracts/DataTypes.sol\":81:128  string public constant stringValue = \"myString\" */\n    tag_22:\n      mload(0x40)\n      dup1\n      0x40\n      add\n      0x40\n      mstore\n      dup1\n      0x08\n      dup2\n      mstore\n      0x20\n      add\n      0x6d79537472696e67000000000000000000000000000000000000000000000000\n      dup2\n      mstore\n      pop\n      dup2\n      jump\t// out\n        /* \"contracts/DataTypes.sol\":305:335  uint256 public myUint256 = 999 */\n    tag_26:\n      sload(0x04)\n      dup2\n      jump\t// out\n        /* \"contracts/DataTypes.sol\":275:299  uint8 public myUint8 = 8 */\n    tag_29:\n      0x03\n      0x00\n      swap1\n      sload\n      swap1\n      0x0100\n      exp\n      swap1\n      div\n      0xff\n      and\n      dup2\n      jump\t// out\n        /* \"#utility.yul\":7:84   */\n    tag_32:\n        /* \"#utility.yul\":44:51   */\n      0x00\n        /* \"#utility.yul\":73:78   */\n      dup2\n        /* \"#utility.yul\":62:78   */\n      swap1\n      pop\n        /* \"#utility.yul\":7:84   */\n      swap2\n      swap1\n      pop\n      jump\t// out\n        /* \"#utility.yul\":90:208   */\n    tag_33:\n        /* \"#utility.yul\":177:201   */\n      tag_48\n        /* \"#utility.yul\":195:200   */\n      dup2\n        /* \"#utility.yul\":177:201   */\n      tag_32\n      jump\t// in\n    tag_48:\n        /* \"#utility.yul\":172:175   */\n      dup3\n        /* \"#utility.yul\":165:202   */\n      mstore\n        /* \"#utility.yul\":90:208   */\n      pop\n      pop\n      jump\t// out\n        /* \"#utility.yul\":214:436   */\n    tag_12:\n        /* \"#utility.yul\":307:311   */\n      0x00\n        /* \"#utility.yul\":345:347   */\n      0x20\n        /* \"#utility.yul\":334:343   */\n      dup3\n        /* \"#utility.yul\":330:348   */\n      add\n        /* \"#utility.yul\":322:348   */\n      swap1\n      pop\n        /* \"#utility.yul\":358:429   */\n      tag_50\n        /* \"#utility.yul\":426:427   */\n      0x00\n        /* \"#utility.yul\":415:424   */\n      dup4\n        /* \"#utility.yul\":411:428   */\n      add\n        /* \"#utility.yul\":402:408   */\n      dup5\n        /* \"#utility.yul\":358:429   */\n      tag_33\n      jump\t// in\n    tag_50:\n        /* \"#utility.yul\":214:436   */\n      swap3\n      swap2\n      pop\n      pop\n      jump\t// out\n        /* \"#utility.yul\":442:518   */\n    tag_34:\n        /* \"#utility.yul\":478:485   */\n      0x00\n        /* \"#utility.yul\":507:512   */\n      dup2\n        /* \"#utility.yul\":496:512   */\n      swap1\n      pop\n        /* \"#utility.yul\":442:518   */\n      swap2\n      swap1\n      pop\n      jump\t// out\n        /* \"#utility.yul\":524:639   */\n    tag_35:\n        /* \"#utility.yul\":609:632   */\n      tag_53\n        /* \"#utility.yul\":626:631   */\n      dup2\n        /* \"#utility.yul\":609:632   */\n      tag_34\n      jump\t// in\n    tag_53:\n        /* \"#utility.yul\":604:607   */\n      dup3\n        /* \"#utility.yul\":597:633   */\n      mstore\n        /* \"#utility.yul\":524:639   */\n      pop\n      pop\n      jump\t// out\n        /* \"#utility.yul\":645:863   */\n    tag_16:\n        /* \"#utility.yul\":736:740   */\n      0x00\n        /* \"#utility.yul\":774:776   */\n      0x20\n        /* \"#utility.yul\":763:772   */\n      dup3\n        /* \"#utility.yul\":759:777   */\n      add\n        /* \"#utility.yul\":751:777   */\n      swap1\n      pop\n        /* \"#utility.yul\":787:856   */\n      tag_55\n        /* \"#utility.yul\":853:854   */\n      0x00\n        /* \"#utility.yul\":842:851   */\n      dup4\n        /* \"#utility.yul\":838:855   */\n      add\n        /* \"#utility.yul\":829:835   */\n      dup5\n        /* \"#utility.yul\":787:856   */\n      tag_35\n      jump\t// in\n    tag_55:\n        /* \"#utility.yul\":645:863   */\n      swap3\n      swap2\n      pop\n      pop\n      jump\t// out\n        /* \"#utility.yul\":869:959   */\n    tag_36:\n        /* \"#utility.yul\":903:910   */\n      0x00\n        /* \"#utility.yul\":946:951   */\n      dup2\n        /* \"#utility.yul\":939:952   */\n      iszero\n        /* \"#utility.yul\":932:953   */\n      iszero\n        /* \"#utility.yul\":921:953   */\n      swap1\n      pop\n        /* \"#utility.yul\":869:959   */\n      swap2\n      swap1\n      pop\n      jump\t// out\n        /* \"#utility.yul\":965:1074   */\n    tag_37:\n        /* \"#utility.yul\":1046:1067   */\n      tag_58\n        /* \"#utility.yul\":1061:1066   */\n      dup2\n        /* \"#utility.yul\":1046:1067   */\n      tag_36\n      jump\t// in\n    tag_58:\n        /* \"#utility.yul\":1041:1044   */\n      dup3\n        /* \"#utility.yul\":1034:1068   */\n      mstore\n        /* \"#utility.yul\":965:1074   */\n      pop\n      pop\n      jump\t// out\n        /* \"#utility.yul\":1080:1290   */\n    tag_20:\n        /* \"#utility.yul\":1167:1171   */\n      0x00\n        /* \"#utility.yul\":1205:1207   */\n      0x20\n        /* \"#utility.yul\":1194:1203   */\n      dup3\n        /* \"#utility.yul\":1190:1208   */\n      add\n        /* \"#utility.yul\":1182:1208   */\n      swap1\n      pop\n        /* \"#utility.yul\":1218:1283   */\n      tag_60\n        /* \"#utility.yul\":1280:1281   */\n      0x00\n        /* \"#utility.yul\":1269:1278   */\n      dup4\n        /* \"#utility.yul\":1265:1282   */\n      add\n        /* \"#utility.yul\":1256:1262   */\n      dup5\n        /* \"#utility.yul\":1218:1283   */\n      tag_37\n      jump\t// in\n    tag_60:\n        /* \"#utility.yul\":1080:1290   */\n      swap3\n      swap2\n      pop\n      pop\n      jump\t// out\n        /* \"#utility.yul\":1296:1395   */\n    tag_38:\n        /* \"#utility.yul\":1348:1354   */\n      0x00\n        /* \"#utility.yul\":1382:1387   */\n      dup2\n        /* \"#utility.yul\":1376:1388   */\n      mload\n        /* \"#utility.yul\":1366:1388   */\n      swap1\n      pop\n        /* \"#utility.yul\":1296:1395   */\n      swap2\n      swap1\n      pop\n      jump\t// out\n        /* \"#utility.yul\":1401:1570   */\n    tag_39:\n        /* \"#utility.yul\":1485:1496   */\n      0x00\n        /* \"#utility.yul\":1519:1525   */\n      dup3\n        /* \"#utility.yul\":1514:1517   */\n      dup3\n        /* \"#utility.yul\":1507:1526   */\n      mstore\n        /* \"#utility.yul\":1559:1563   */\n      0x20\n        /* \"#utility.yul\":1554:1557   */\n      dup3\n        /* \"#utility.yul\":1550:1564   */\n      add\n        /* \"#utility.yul\":1535:1564   */\n      swap1\n      pop\n        /* \"#utility.yul\":1401:1570   */\n      swap3\n      swap2\n      pop\n      pop\n      jump\t// out\n        /* \"#utility.yul\":1576:1883   */\n    tag_40:\n        /* \"#utility.yul\":1644:1645   */\n      0x00\n        /* \"#utility.yul\":1654:1767   */\n    tag_64:\n        /* \"#utility.yul\":1668:1674   */\n      dup4\n        /* \"#utility.yul\":1665:1666   */\n      dup2\n        /* \"#utility.yul\":1662:1675   */\n      lt\n        /* \"#utility.yul\":1654:1767   */\n      iszero\n      tag_66\n      jumpi\n        /* \"#utility.yul\":1753:1754   */\n      dup1\n        /* \"#utility.yul\":1748:1751   */\n      dup3\n        /* \"#utility.yul\":1744:1755   */\n      add\n        /* \"#utility.yul\":1738:1756   */\n      mload\n        /* \"#utility.yul\":1734:1735   */\n      dup2\n        /* \"#utility.yul\":1729:1732   */\n      dup5\n        /* \"#utility.yul\":1725:1736   */\n      add\n        /* \"#utility.yul\":1718:1757   */\n      mstore\n        /* \"#utility.yul\":1690:1692   */\n      0x20\n        /* \"#utility.yul\":1687:1688   */\n      dup2\n        /* \"#utility.yul\":1683:1693   */\n      add\n        /* \"#utility.yul\":1678:1693   */\n      swap1\n      pop\n        /* \"#utility.yul\":1654:1767   */\n      jump(tag_64)\n    tag_66:\n        /* \"#utility.yul\":1785:1791   */\n      dup4\n        /* \"#utility.yul\":1782:1783   */\n      dup2\n        /* \"#utility.yul\":1779:1792   */\n      gt\n        /* \"#utility.yul\":1776:1877   */\n      iszero\n      tag_67\n      jumpi\n        /* \"#utility.yul\":1865:1866   */\n      0x00\n        /* \"#utility.yul\":1856:1862   */\n      dup5\n        /* \"#utility.yul\":1851:1854   */\n      dup5\n        /* \"#utility.yul\":1847:1863   */\n      add\n        /* \"#utility.yul\":1840:1867   */\n      mstore\n        /* \"#utility.yul\":1776:1877   */\n    tag_67:\n        /* \"#utility.yul\":1625:1883   */\n      pop\n        /* \"#utility.yul\":1576:1883   */\n      pop\n      pop\n      pop\n      jump\t// out\n        /* \"#utility.yul\":1889:1991   */\n    tag_41:\n        /* \"#utility.yul\":1930:1936   */\n      0x00\n        /* \"#utility.yul\":1981:1983   */\n      0x1f\n        /* \"#utility.yul\":1977:1984   */\n      not\n        /* \"#utility.yul\":1972:1974   */\n      0x1f\n        /* \"#utility.yul\":1965:1970   */\n      dup4\n        /* \"#utility.yul\":1961:1975   */\n      add\n        /* \"#utility.yul\":1957:1985   */\n      and\n        /* \"#utility.yul\":1947:1985   */\n      swap1\n      pop\n        /* \"#utility.yul\":1889:1991   */\n      swap2\n      swap1\n      pop\n      jump\t// out\n        /* \"#utility.yul\":1997:2361   */\n    tag_42:\n        /* \"#utility.yul\":2085:2088   */\n      0x00\n        /* \"#utility.yul\":2113:2152   */\n      tag_70\n        /* \"#utility.yul\":2146:2151   */\n      dup3\n        /* \"#utility.yul\":2113:2152   */\n      tag_38\n      jump\t// in\n    tag_70:\n        /* \"#utility.yul\":2168:2239   */\n      tag_71\n        /* \"#utility.yul\":2232:2238   */\n      dup2\n        /* \"#utility.yul\":2227:2230   */\n      dup6\n        /* \"#utility.yul\":2168:2239   */\n      tag_39\n      jump\t// in\n    tag_71:\n        /* \"#utility.yul\":2161:2239   */\n      swap4\n      pop\n        /* \"#utility.yul\":2248:2300   */\n      tag_72\n        /* \"#utility.yul\":2293:2299   */\n      dup2\n        /* \"#utility.yul\":2288:2291   */\n      dup6\n        /* \"#utility.yul\":2281:2285   */\n      0x20\n        /* \"#utility.yul\":2274:2279   */\n      dup7\n        /* \"#utility.yul\":2270:2286   */\n      add\n        /* \"#utility.yul\":2248:2300   */\n      tag_40\n      jump\t// in\n    tag_72:\n        /* \"#utility.yul\":2325:2354   */\n      tag_73\n        /* \"#utility.yul\":2347:2353   */\n      dup2\n        /* \"#utility.yul\":2325:2354   */\n      tag_41\n      jump\t// in\n    tag_73:\n        /* \"#utility.yul\":2320:2323   */\n      dup5\n        /* \"#utility.yul\":2316:2355   */\n      add\n        /* \"#utility.yul\":2309:2355   */\n      swap2\n      pop\n        /* \"#utility.yul\":2089:2361   */\n      pop\n        /* \"#utility.yul\":1997:2361   */\n      swap3\n      swap2\n      pop\n      pop\n      jump\t// out\n        /* \"#utility.yul\":2367:2680   */\n    tag_24:\n        /* \"#utility.yul\":2480:2484   */\n      0x00\n        /* \"#utility.yul\":2518:2520   */\n      0x20\n        /* \"#utility.yul\":2507:2516   */\n      dup3\n        /* \"#utility.yul\":2503:2521   */\n      add\n        /* \"#utility.yul\":2495:2521   */\n      swap1\n      pop\n        /* \"#utility.yul\":2567:2576   */\n      dup2\n        /* \"#utility.yul\":2561:2565   */\n      dup2\n        /* \"#utility.yul\":2557:2577   */\n      sub\n        /* \"#utility.yul\":2553:2554   */\n      0x00\n        /* \"#utility.yul\":2542:2551   */\n      dup4\n        /* \"#utility.yul\":2538:2555   */\n      add\n        /* \"#utility.yul\":2531:2578   */\n      mstore\n        /* \"#utility.yul\":2595:2673   */\n      tag_75\n        /* \"#utility.yul\":2668:2672   */\n      dup2\n        /* \"#utility.yul\":2659:2665   */\n      dup5\n        /* \"#utility.yul\":2595:2673   */\n      tag_42\n      jump\t// in\n    tag_75:\n        /* \"#utility.yul\":2587:2673   */\n      swap1\n      pop\n        /* \"#utility.yul\":2367:2680   */\n      swap3\n      swap2\n      pop\n      pop\n      jump\t// out\n        /* \"#utility.yul\":2686:2772   */\n    tag_43:\n        /* \"#utility.yul\":2721:2728   */\n      0x00\n        /* \"#utility.yul\":2761:2765   */\n      0xff\n        /* \"#utility.yul\":2754:2759   */\n      dup3\n        /* \"#utility.yul\":2750:2766   */\n      and\n        /* \"#utility.yul\":2739:2766   */\n      swap1\n      pop\n        /* \"#utility.yul\":2686:2772   */\n      swap2\n      swap1\n      pop\n      jump\t// out\n        /* \"#utility.yul\":2778:2890   */\n    tag_44:\n        /* \"#utility.yul\":2861:2883   */\n      tag_78\n        /* \"#utility.yul\":2877:2882   */\n      dup2\n        /* \"#utility.yul\":2861:2883   */\n      tag_43\n      jump\t// in\n    tag_78:\n        /* \"#utility.yul\":2856:2859   */\n      dup3\n        /* \"#utility.yul\":2849:2884   */\n      mstore\n        /* \"#utility.yul\":2778:2890   */\n      pop\n      pop\n      jump\t// out\n        /* \"#utility.yul\":2896:3110   */\n    tag_31:\n        /* \"#utility.yul\":2985:2989   */\n      0x00\n        /* \"#utility.yul\":3023:3025   */\n      0x20\n        /* \"#utility.yul\":3012:3021   */\n      dup3\n        /* \"#utility.yul\":3008:3026   */\n      add\n        /* \"#utility.yul\":3000:3026   */\n      swap1\n      pop\n        /* \"#utility.yul\":3036:3103   */\n      tag_80\n        /* \"#utility.yul\":3100:3101   */\n      0x00\n        /* \"#utility.yul\":3089:3098   */\n      dup4\n        /* \"#utility.yul\":3085:3102   */\n      add\n        /* \"#utility.yul\":3076:3082   */\n      dup5\n        /* \"#utility.yul\":3036:3103   */\n      tag_44\n      jump\t// in\n    tag_80:\n        /* \"#utility.yul\":2896:3110   */\n      swap3\n      swap2\n      pop\n      pop\n      jump\t// out\n\n    auxdata: 0xa264697066735822122004916a3c2f45d0df52ee80d443cec55427bb8948fa2ab7619ef765e8bdc41ff864736f6c63430008080033\n}\n",
				"bytecode": {
					"linkReferences": {},
					"object": "608060405260016000806101000a81548160ff0219169083151502179055506001805560016002556008600360006101000a81548160ff021916908360ff1602179055506103e760045534801561005557600080fd5b50610350806100656000396000f3fe608060405234801561001057600080fd5b50600436106100625760003560e01c806306540f7e146100675780632cb777a6146100855780636deecdbe146100a35780637dc93929146100c1578063a7dbce1c146100df578063e2a4b2af146100fd575b600080fd5b61006f61011b565b60405161007c91906101a3565b60405180910390f35b61008d610121565b60405161009a91906101d7565b60405180910390f35b6100ab610127565b6040516100b8919061020d565b60405180910390f35b6100c9610138565b6040516100d691906102c1565b60405180910390f35b6100e7610171565b6040516100f491906101a3565b60405180910390f35b610105610177565b60405161011291906102ff565b60405180910390f35b60025481565b60015481565b60008054906101000a900460ff1681565b6040518060400160405280600881526020017f6d79537472696e6700000000000000000000000000000000000000000000000081525081565b60045481565b600360009054906101000a900460ff1681565b6000819050919050565b61019d8161018a565b82525050565b60006020820190506101b86000830184610194565b92915050565b6000819050919050565b6101d1816101be565b82525050565b60006020820190506101ec60008301846101c8565b92915050565b60008115159050919050565b610207816101f2565b82525050565b600060208201905061022260008301846101fe565b92915050565b600081519050919050565b600082825260208201905092915050565b60005b83811015610262578082015181840152602081019050610247565b83811115610271576000848401525b50505050565b6000601f19601f8301169050919050565b600061029382610228565b61029d8185610233565b93506102ad818560208601610244565b6102b681610277565b840191505092915050565b600060208201905081810360008301526102db8184610288565b905092915050565b600060ff82169050919050565b6102f9816102e3565b82525050565b600060208201905061031460008301846102f0565b9291505056fea264697066735822122004916a3c2f45d0df52ee80d443cec55427bb8948fa2ab7619ef765e8bdc41ff864736f6c63430008080033",
					"opcodes": "PUSH1 0x80 PUSH1 0x40 MSTORE PUSH1 0x1 PUSH1 0x0 DUP1 PUSH2 0x100 EXP DUP2 SLOAD DUP2 PUSH1 0xFF MUL NOT AND SWAP1 DUP4 ISZERO ISZERO MUL OR SWAP1 SSTORE POP PUSH1 0x1 DUP1 SSTORE PUSH1 0x1 PUSH1 0x2 SSTORE PUSH1 0x8 PUSH1 0x3 PUSH1 0x0 PUSH2 0x100 EXP DUP2 SLOAD DUP2 PUSH1 0xFF MUL NOT AND SWAP1 DUP4 PUSH1 0xFF AND MUL OR SWAP1 SSTORE POP PUSH2 0x3E7 PUSH1 0x4 SSTORE CALLVALUE DUP1 ISZERO PUSH2 0x55 JUMPI PUSH1 0x0 DUP1 REVERT JUMPDEST POP PUSH2 0x350 DUP1 PUSH2 0x65 PUSH1 0x0 CODECOPY PUSH1 0x0 RETURN INVALID PUSH1 0x80 PUSH1 0x40 MSTORE CALLVALUE DUP1 ISZERO PUSH2 0x10 JUMPI PUSH1 0x0 DUP1 REVERT JUMPDEST POP PUSH1 0x4 CALLDATASIZE LT PUSH2 0x62 JUMPI PUSH1 0x0 CALLDATALOAD PUSH1 0xE0 SHR DUP1 PUSH4 0x6540F7E EQ PUSH2 0x67 JUMPI DUP1 PUSH4 0x2CB777A6 EQ PUSH2 0x85 JUMPI DUP1 PUSH4 0x6DEECDBE EQ PUSH2 0xA3 JUMPI DUP1 PUSH4 0x7DC93929 EQ PUSH2 0xC1 JUMPI DUP1 PUSH4 0xA7DBCE1C EQ PUSH2 0xDF JUMPI DUP1 PUSH4 0xE2A4B2AF EQ PUSH2 0xFD JUMPI JUMPDEST PUSH1 0x0 DUP1 REVERT JUMPDEST PUSH2 0x6F PUSH2 0x11B JUMP JUMPDEST PUSH1 0x40 MLOAD PUSH2 0x7C SWAP2 SWAP1 PUSH2 0x1A3 JUMP JUMPDEST PUSH1 0x40 MLOAD DUP1 SWAP2 SUB SWAP1 RETURN JUMPDEST PUSH2 0x8D PUSH2 0x121 JUMP JUMPDEST PUSH1 0x40 MLOAD PUSH2 0x9A SWAP2 SWAP1 PUSH2 0x1D7 JUMP JUMPDEST PUSH1 0x40 MLOAD DUP1 SWAP2 SUB SWAP1 RETURN JUMPDEST PUSH2 0xAB PUSH2 0x127 JUMP JUMPDEST PUSH1 0x40 MLOAD PUSH2 0xB8 SWAP2 SWAP1 PUSH2 0x20D JUMP JUMPDEST PUSH1 0x40 MLOAD DUP1 SWAP2 SUB SWAP1 RETURN JUMPDEST PUSH2 0xC9 PUSH2 0x138 JUMP JUMPDEST PUSH1 0x40 MLOAD PUSH2 0xD6 SWAP2 SWAP1 PUSH2 0x2C1 JUMP JUMPDEST PUSH1 0x40 MLOAD DUP1 SWAP2 SUB SWAP1 RETURN JUMPDEST PUSH2 0xE7 PUSH2 0x171 JUMP JUMPDEST PUSH1 0x40 MLOAD PUSH2 0xF4 SWAP2 SWAP1 PUSH2 0x1A3 JUMP JUMPDEST PUSH1 0x40 MLOAD DUP1 SWAP2 SUB SWAP1 RETURN JUMPDEST PUSH2 0x105 PUSH2 0x177 JUMP JUMPDEST PUSH1 0x40 MLOAD PUSH2 0x112 SWAP2 SWAP1 PUSH2 0x2FF JUMP JUMPDEST PUSH1 0x40 MLOAD DUP1 SWAP2 SUB SWAP1 RETURN JUMPDEST PUSH1 0x2 SLOAD DUP2 JUMP JUMPDEST PUSH1 0x1 SLOAD DUP2 JUMP JUMPDEST PUSH1 0x0 DUP1 SLOAD SWAP1 PUSH2 0x100 EXP SWAP1 DIV PUSH1 0xFF AND DUP2 JUMP JUMPDEST PUSH1 0x40 MLOAD DUP1 PUSH1 0x40 ADD PUSH1 0x40 MSTORE DUP1 PUSH1 0x8 DUP2 MSTORE PUSH1 0x20 ADD PUSH32 0x6D79537472696E67000000000000000000000000000000000000000000000000 DUP2 MSTORE POP DUP2 JUMP JUMPDEST PUSH1 0x4 SLOAD DUP2 JUMP JUMPDEST PUSH1 0x3 PUSH1 0x0 SWAP1 SLOAD SWAP1 PUSH2 0x100 EXP SWAP1 DIV PUSH1 0xFF AND DUP2 JUMP JUMPDEST PUSH1 0x0 DUP2 SWAP1 POP SWAP2 SWAP1 POP JUMP JUMPDEST PUSH2 0x19D DUP2 PUSH2 0x18A JUMP JUMPDEST DUP3 MSTORE POP POP JUMP JUMPDEST PUSH1 0x0 PUSH1 0x20 DUP3 ADD SWAP1 POP PUSH2 0x1B8 PUSH1 0x0 DUP4 ADD DUP5 PUSH2 0x194 JUMP JUMPDEST SWAP3 SWAP2 POP POP JUMP JUMPDEST PUSH1 0x0 DUP2 SWAP1 POP SWAP2 SWAP1 POP JUMP JUMPDEST PUSH2 0x1D1 DUP2 PUSH2 0x1BE JUMP JUMPDEST DUP3 MSTORE POP POP JUMP JUMPDEST PUSH1 0x0 PUSH1 0x20 DUP3 ADD SWAP1 POP PUSH2 0x1EC PUSH1 0x0 DUP4 ADD DUP5 PUSH2 0x1C8 JUMP JUMPDEST SWAP3 SWAP2 POP POP JUMP JUMPDEST PUSH1 0x0 DUP2 ISZERO ISZERO SWAP1 POP SWAP2 SWAP1 POP JUMP JUMPDEST PUSH2 0x207 DUP2 PUSH2 0x1F2 JUMP JUMPDEST DUP3 MSTORE POP POP JUMP JUMPDEST PUSH1 0x0 PUSH1 0x20 DUP3 ADD SWAP1 POP PUSH2 0x222 PUSH1 0x0 DUP4 ADD DUP5 PUSH2 0x1FE JUMP JUMPDEST SWAP3 SWAP2 POP POP JUMP JUMPDEST PUSH1 0x0 DUP2 MLOAD SWAP1 POP SWAP2 SWAP1 POP JUMP JUMPDEST PUSH1 0x0 DUP3 DUP3 MSTORE PUSH1 0x20 DUP3 ADD SWAP1 POP SWAP3 SWAP2 POP POP JUMP JUMPDEST PUSH1 0x0 JUMPDEST DUP4 DUP2 LT ISZERO PUSH2 0x262 JUMPI DUP1 DUP3 ADD MLOAD DUP2 DUP5 ADD MSTORE PUSH1 0x20 DUP2 ADD SWAP1 POP PUSH2 0x247 JUMP JUMPDEST DUP4 DUP2 GT ISZERO PUSH2 0x271 JUMPI PUSH1 0x0 DUP5 DUP5 ADD MSTORE JUMPDEST POP POP POP POP JUMP JUMPDEST PUSH1 0x0 PUSH1 0x1F NOT PUSH1 0x1F DUP4 ADD AND SWAP1 POP SWAP2 SWAP1 POP JUMP JUMPDEST PUSH1 0x0 PUSH2 0x293 DUP3 PUSH2 0x228 JUMP JUMPDEST PUSH2 0x29D DUP2 DUP6 PUSH2 0x233 JUMP JUMPDEST SWAP4 POP PUSH2 0x2AD DUP2 DUP6 PUSH1 0x20 DUP7 ADD PUSH2 0x244 JUMP JUMPDEST PUSH2 0x2B6 DUP2 PUSH2 0x277 JUMP JUMPDEST DUP5 ADD SWAP2 POP POP SWAP3 SWAP2 POP POP JUMP JUMPDEST PUSH1 0x0 PUSH1 0x20 DUP3 ADD SWAP1 POP DUP2 DUP2 SUB PUSH1 0x0 DUP4 ADD MSTORE PUSH2 0x2DB DUP2 DUP5 PUSH2 0x288 JUMP JUMPDEST SWAP1 POP SWAP3 SWAP2 POP POP JUMP JUMPDEST PUSH1 0x0 PUSH1 0xFF DUP3 AND SWAP1 POP SWAP2 SWAP1 POP JUMP JUMPDEST PUSH2 0x2F9 DUP2 PUSH2 0x2E3 JUMP JUMPDEST DUP3 MSTORE POP POP JUMP JUMPDEST PUSH1 0x0 PUSH1 0x20 DUP3 ADD SWAP1 POP PUSH2 0x314 PUSH1 0x0 DUP4 ADD DUP5 PUSH2 0x2F0 JUMP JUMPDEST SWAP3 SWAP2 POP POP JUMP INVALID LOG2 PUSH5 0x6970667358 0x22 SLT KECCAK256 DIV SWAP2 PUSH11 0x3C2F45D0DF52EE80D443CE 0xC5 SLOAD 0x27 0xBB DUP10 BASEFEE STATICCALL 0x2A 0xB7 PUSH2 0x9EF7 PUSH6 0xE8BDC41FF864 PUSH20 0x6F6C634300080800330000000000000000000000 "
				},
				"gasEstimates": {
					"creation": {
						"codeDepositCost": "169600",
						"executionCost": "115066",
						"totalCost": "284666"
					},
					"external": {
						"myBool()": "2490",
						"myInt()": "2429",
						"myUint()": "2407",
						"myUint256()": "2495",
						"myUint8()": "2559",
						"stringValue()": "infinite"
					}
				},
				"methodIdentifiers": {
					"myBool()": "6deecdbe",
					"myInt()": "2cb777a6",
					"myUint()": "06540f7e",
					"myUint256()": "a7dbce1c",
					"myUint8()": "e2a4b2af",
					"stringValue()": "7dc93929"
				}
			},
			"storageLayout": {
				"storage": [
					{
						"astId": 7,
						"contract": "contracts/DataTypes.sol:DataTypes",
						"label": "myBool",
						"offset": 0,
						"slot": "0",
						"type": "t_bool"
					},
					{
						"astId": 10,
						"contract": "contracts/DataTypes.sol:DataTypes",
						"label": "myInt",
						"offset": 0,
						"slot": "1",
						"type": "t_int256"
					},
					{
						"astId": 13,
						"contract": "contracts/DataTypes.sol:DataTypes",
						"label": "myUint",
						"offset": 0,
						"slot": "2",
						"type": "t_uint256"
					},
					{
						"astId": 16,
						"contract": "contracts/DataTypes.sol:DataTypes",
						"label": "myUint8",
						"offset": 0,
						"slot": "3",
						"type": "t_uint8"
					},
					{
						"astId": 19,
						"contract": "contracts/DataTypes.sol:DataTypes",
						"label": "myUint256",
						"offset": 0,
						"slot": "4",
						"type": "t_uint256"
					}
				],
				"types": {
					"t_bool": {
						"encoding": "inplace",
						"label": "bool",
						"numberOfBytes": "1"
					},
					"t_int256": {
						"encoding": "inplace",
						"label": "int256",
						"numberOfBytes": "32"
					},
					"t_uint256": {
						"encoding": "inplace",
						"label": "uint256",
						"numberOfBytes": "32"
					},
					"t_uint8": {
						"encoding": "inplace",
						"label": "uint8",
						"numberOfBytes": "1"
					}
				}
			},
			"userdoc": {
				"kind": "user",
				"methods": {},
				"version": 1
			}
		}
	}
}